{
  "contractName": "StakePool",
  "abi": [
    {
      "inputs": [],
      "payable": false,
      "stateMutability": "nonpayable",
      "type": "constructor"
    },
    {
      "anonymous": false,
      "inputs": [
        {
          "indexed": false,
          "name": "sender",
          "type": "address"
        },
        {
          "indexed": false,
          "name": "amount",
          "type": "uint256"
        },
        {
          "indexed": false,
          "name": "balance",
          "type": "uint256"
        }
      ],
      "name": "NotifyDeposit",
      "type": "event"
    },
    {
      "constant": false,
      "inputs": [],
      "name": "deposit",
      "outputs": [],
      "payable": true,
      "stateMutability": "payable",
      "type": "function"
    },
    {
      "constant": false,
      "inputs": [],
      "name": "withdrawal",
      "outputs": [
        {
          "name": "",
          "type": "bool"
        }
      ],
      "payable": true,
      "stateMutability": "payable",
      "type": "function"
    },
    {
      "constant": true,
      "inputs": [],
      "name": "getBalance",
      "outputs": [
        {
          "name": "",
          "type": "uint256"
        }
      ],
      "payable": false,
      "stateMutability": "view",
      "type": "function"
    }
  ],
  "bytecode": "0x608060405234801561001057600080fd5b506102ba806100206000396000f300608060405260043610610057576000357c0100000000000000000000000000000000000000000000000000000000900463ffffffff16806312065fe01461005c578063d0e30db014610087578063d4e9329214610091575b600080fd5b34801561006857600080fd5b506100716100b3565b6040518082815260200191505060405180910390f35b61008f6100f9565b005b6100996101f8565b604051808215151515815260200191505060405180910390f35b60008060003373ffffffffffffffffffffffffffffffffffffffff1673ffffffffffffffffffffffffffffffffffffffff16815260200190815260200160002054905090565b346000803373ffffffffffffffffffffffffffffffffffffffff1673ffffffffffffffffffffffffffffffffffffffff168152602001908152602001600020600082825401925050819055507f289612937eedf6241fafcdf01e3dd2fca195f2eceb2fe82a9baeeee6408be55133346000803373ffffffffffffffffffffffffffffffffffffffff1673ffffffffffffffffffffffffffffffffffffffff16815260200190815260200160002054604051808473ffffffffffffffffffffffffffffffffffffffff1673ffffffffffffffffffffffffffffffffffffffff168152602001838152602001828152602001935050505060405180910390a1565b6000346000803373ffffffffffffffffffffffffffffffffffffffff1673ffffffffffffffffffffffffffffffffffffffff16815260200190815260200160002054101515610286573373ffffffffffffffffffffffffffffffffffffffff166108fc349081150290604051600060405180830381858888f193505050501515610285576000905061028b565b5b600190505b905600a165627a7a7230582033fe58fa4928d45a92fadac29560b45094d4c72cf18d79d23646e150fe264b350029",
  "source": "pragma solidity ^0.4.24;\n\nimport 'zeppelin-solidity/contracts/math/SafeMath.sol';\n\n/* @title Staking Pool Contract */\ncontract StakePool {\n\n  // track balances of ether deposited to contract\n  mapping(address => uint) poolBalances;\n\n  /** @dev trigger notification of deposits\n    */\n  event NotifyDeposit(address sender, uint amount, uint balance);\n\n  /** @dev creates contract\n    */\n  constructor() public { }\n\n  /** @dev deposit funds to the contract\n    */\n   function deposit() public payable {\n     poolBalances[msg.sender] += msg.value;\n     emit NotifyDeposit(msg.sender, msg.value, poolBalances[msg.sender]);\n   }\n\n   /** @dev withdrawal funds out of pool\n     * TODO: this must be a request for withdrawal as un-staking takes time\n     *\n     */\n    function withdrawal() public payable returns (bool) {\n     if (poolBalances[msg.sender] >= msg.value) {\n       if (!msg.sender.send(msg.value)) {\n         return false;\n       }\n     }\n     return true;\n    }\n\n    /** @dev retreive balance from contract\n      * @return uint current value of deposit\n      */\n    function getBalance() public view returns (uint) {\n      return poolBalances[msg.sender];\n    }\n}\n\n\n  /* example comments for functions */\n    /** @dev Calculates a rectangle's surface and perimeter.\n      * @param w Width of the rectangle.\n      * @param h Height of the rectangle.\n      * @return s The calculated surface.\n      * @return p The calculated perimeter.\n      */\n",
  "sourcePath": "/mnt/projects/ethereum/learn/consensys_academy/final_project/contracts/StakePool.sol",
  "compiler": {
    "name": "solc",
    "version": "0.4.24+commit.e67f0147.Emscripten.clang"
  },
  "schemaVersion": "2.0.1",
  "updatedAt": "2018-08-01T22:44:17.775Z"
}