{
  "contractName": "StakePool",
  "abi": [
    {
      "constant": false,
      "inputs": [],
      "name": "unpause",
      "outputs": [],
      "payable": false,
      "stateMutability": "nonpayable",
      "type": "function"
    },
    {
      "constant": true,
      "inputs": [],
      "name": "paused",
      "outputs": [
        {
          "name": "",
          "type": "bool"
        }
      ],
      "payable": false,
      "stateMutability": "view",
      "type": "function"
    },
    {
      "constant": false,
      "inputs": [],
      "name": "renounceOwnership",
      "outputs": [],
      "payable": false,
      "stateMutability": "nonpayable",
      "type": "function"
    },
    {
      "constant": false,
      "inputs": [],
      "name": "pause",
      "outputs": [],
      "payable": false,
      "stateMutability": "nonpayable",
      "type": "function"
    },
    {
      "constant": true,
      "inputs": [],
      "name": "owner",
      "outputs": [
        {
          "name": "",
          "type": "address"
        }
      ],
      "payable": false,
      "stateMutability": "view",
      "type": "function"
    },
    {
      "constant": false,
      "inputs": [
        {
          "name": "_newOwner",
          "type": "address"
        }
      ],
      "name": "transferOwnership",
      "outputs": [],
      "payable": false,
      "stateMutability": "nonpayable",
      "type": "function"
    },
    {
      "inputs": [
        {
          "name": "_stakeContract",
          "type": "address"
        }
      ],
      "payable": false,
      "stateMutability": "nonpayable",
      "type": "constructor"
    },
    {
      "payable": true,
      "stateMutability": "payable",
      "type": "fallback"
    },
    {
      "anonymous": false,
      "inputs": [
        {
          "indexed": false,
          "name": "sender",
          "type": "address"
        },
        {
          "indexed": false,
          "name": "amount",
          "type": "uint256"
        }
      ],
      "name": "NotifyFallback",
      "type": "event"
    },
    {
      "anonymous": false,
      "inputs": [
        {
          "indexed": false,
          "name": "oldSC",
          "type": "address"
        },
        {
          "indexed": false,
          "name": "newSC",
          "type": "address"
        }
      ],
      "name": "NotifyNewSC",
      "type": "event"
    },
    {
      "anonymous": false,
      "inputs": [
        {
          "indexed": false,
          "name": "sender",
          "type": "address"
        },
        {
          "indexed": false,
          "name": "amount",
          "type": "uint256"
        },
        {
          "indexed": false,
          "name": "balance",
          "type": "uint256"
        }
      ],
      "name": "NotifyDeposit",
      "type": "event"
    },
    {
      "anonymous": false,
      "inputs": [
        {
          "indexed": false,
          "name": "sender",
          "type": "address"
        },
        {
          "indexed": false,
          "name": "amount",
          "type": "uint256"
        }
      ],
      "name": "NotifyStaked",
      "type": "event"
    },
    {
      "anonymous": false,
      "inputs": [
        {
          "indexed": false,
          "name": "user",
          "type": "address"
        },
        {
          "indexed": false,
          "name": "previousBalance",
          "type": "uint256"
        },
        {
          "indexed": false,
          "name": "newStakeBalence",
          "type": "uint256"
        }
      ],
      "name": "NotifyUpdate",
      "type": "event"
    },
    {
      "anonymous": false,
      "inputs": [
        {
          "indexed": false,
          "name": "sender",
          "type": "address"
        },
        {
          "indexed": false,
          "name": "startBal",
          "type": "uint256"
        },
        {
          "indexed": false,
          "name": "finalBal",
          "type": "uint256"
        },
        {
          "indexed": false,
          "name": "request",
          "type": "uint256"
        }
      ],
      "name": "NotifyWithdrawal",
      "type": "event"
    },
    {
      "anonymous": false,
      "inputs": [
        {
          "indexed": false,
          "name": "earnings",
          "type": "uint256"
        }
      ],
      "name": "NotifyEarnings",
      "type": "event"
    },
    {
      "anonymous": false,
      "inputs": [],
      "name": "Pause",
      "type": "event"
    },
    {
      "anonymous": false,
      "inputs": [],
      "name": "Unpause",
      "type": "event"
    },
    {
      "anonymous": false,
      "inputs": [
        {
          "indexed": true,
          "name": "previousOwner",
          "type": "address"
        }
      ],
      "name": "OwnershipRenounced",
      "type": "event"
    },
    {
      "anonymous": false,
      "inputs": [
        {
          "indexed": true,
          "name": "previousOwner",
          "type": "address"
        },
        {
          "indexed": true,
          "name": "newOwner",
          "type": "address"
        }
      ],
      "name": "OwnershipTransferred",
      "type": "event"
    },
    {
      "constant": false,
      "inputs": [
        {
          "name": "_stakeContract",
          "type": "address"
        }
      ],
      "name": "setStakeContract",
      "outputs": [],
      "payable": false,
      "stateMutability": "nonpayable",
      "type": "function"
    },
    {
      "constant": false,
      "inputs": [],
      "name": "stake",
      "outputs": [],
      "payable": false,
      "stateMutability": "nonpayable",
      "type": "function"
    },
    {
      "constant": false,
      "inputs": [],
      "name": "unstake",
      "outputs": [],
      "payable": false,
      "stateMutability": "nonpayable",
      "type": "function"
    },
    {
      "constant": false,
      "inputs": [],
      "name": "calcNewBalances",
      "outputs": [],
      "payable": false,
      "stateMutability": "nonpayable",
      "type": "function"
    },
    {
      "constant": false,
      "inputs": [],
      "name": "deposit",
      "outputs": [],
      "payable": true,
      "stateMutability": "payable",
      "type": "function"
    },
    {
      "constant": false,
      "inputs": [
        {
          "name": "wdValue",
          "type": "uint256"
        }
      ],
      "name": "withdraw",
      "outputs": [],
      "payable": false,
      "stateMutability": "nonpayable",
      "type": "function"
    },
    {
      "constant": false,
      "inputs": [],
      "name": "requestNextStakingPeriod",
      "outputs": [],
      "payable": false,
      "stateMutability": "nonpayable",
      "type": "function"
    },
    {
      "constant": false,
      "inputs": [
        {
          "name": "amount",
          "type": "uint256"
        }
      ],
      "name": "requestExitAtEndOfCurrentStakingPeriod",
      "outputs": [],
      "payable": false,
      "stateMutability": "nonpayable",
      "type": "function"
    },
    {
      "constant": true,
      "inputs": [],
      "name": "getState",
      "outputs": [
        {
          "name": "",
          "type": "uint256[]"
        }
      ],
      "payable": false,
      "stateMutability": "view",
      "type": "function"
    }
  ],
  "bytecode": "0x608060405260008060146101000a81548160ff02191690831515021790555034801561002a57600080fd5b506040516020806128da83398101806040528101908080519060200190929190505050336000806101000a81548173ffffffffffffffffffffffffffffffffffffffff021916908373ffffffffffffffffffffffffffffffffffffffff160217905550600073ffffffffffffffffffffffffffffffffffffffff168173ffffffffffffffffffffffffffffffffffffffff16141515156100c957600080fd5b80600160006101000a81548173ffffffffffffffffffffffffffffffffffffffff021916908373ffffffffffffffffffffffffffffffffffffffff160217905550600160009054906101000a900473ffffffffffffffffffffffffffffffffffffffff16600260006101000a81548173ffffffffffffffffffffffffffffffffffffffff021916908373ffffffffffffffffffffffffffffffffffffffff16021790555060096000809054906101000a900473ffffffffffffffffffffffffffffffffffffffff1690806001815401808255809150509060018203906000526020600020016000909192909190916101000a81548173ffffffffffffffffffffffffffffffffffffffff021916908373ffffffffffffffffffffffffffffffffffffffff16021790555050506126d6806102046000396000f3006080604052600436106100db576000357c0100000000000000000000000000000000000000000000000000000000900463ffffffff1680630d31a831146101485780631865c57d146101755780632def6620146101e15780632e1a7d4d146101f85780633a4b66f1146102255780633f4ba83a1461023c578063509484d5146102535780635c975abb14610296578063715018a6146102c5578063840c8bc5146102dc5780638456cb59146102f35780638da5cb5b1461030a578063bad2e86714610361578063d0e30db014610378578063f2fde38b14610382575b7f06b4c151662ab2eb08b261aba9c908e71b52a9a7fd40c1a058f6f2dbcc1ed3e53334604051808373ffffffffffffffffffffffffffffffffffffffff1673ffffffffffffffffffffffffffffffffffffffff1681526020018281526020019250505060405180910390a1005b34801561015457600080fd5b50610173600480360381019080803590602001909291905050506103c5565b005b34801561018157600080fd5b5061018a610571565b6040518080602001828103825283818151815260200191508051906020019060200280838360005b838110156101cd5780820151818401526020810190506101b2565b505050509050019250505060405180910390f35b3480156101ed57600080fd5b506101f6610722565b005b34801561020457600080fd5b5061022360048036038101908080359060200190929190505050610bf4565b005b34801561023157600080fd5b5061023a610e53565b005b34801561024857600080fd5b506102516111db565b005b34801561025f57600080fd5b50610294600480360381019080803573ffffffffffffffffffffffffffffffffffffffff169060200190929190505050611299565b005b3480156102a257600080fd5b506102ab6114b8565b604051808215151515815260200191505060405180910390f35b3480156102d157600080fd5b506102da6114cb565b005b3480156102e857600080fd5b506102f16115cd565b005b3480156102ff57600080fd5b5061030861180a565b005b34801561031657600080fd5b5061031f6118ca565b604051808273ffffffffffffffffffffffffffffffffffffffff1673ffffffffffffffffffffffffffffffffffffffff16815260200191505060405180910390f35b34801561036d57600080fd5b506103766118ef565b005b610380611f04565b005b34801561038e57600080fd5b506103c3600480360381019080803573ffffffffffffffffffffffffffffffffffffffff169060200190929190505050612069565b005b600060149054906101000a900460ff161515156103e157600080fd5b80600660003373ffffffffffffffffffffffffffffffffffffffff1673ffffffffffffffffffffffffffffffffffffffff168152602001908152602001600020541015151561042f57600080fd5b61048181600860003373ffffffffffffffffffffffffffffffffffffffff1673ffffffffffffffffffffffffffffffffffffffff168152602001908152602001600020546120d090919063ffffffff16565b600860003373ffffffffffffffffffffffffffffffffffffffff1673ffffffffffffffffffffffffffffffffffffffff168152602001908152602001600020819055507fc56736dcf0d4f5e82a639a9147b6843027755e445f6c6379e64fafaf677fc95f33600860003373ffffffffffffffffffffffffffffffffffffffff1673ffffffffffffffffffffffffffffffffffffffff16815260200190815260200160002054604051808373ffffffffffffffffffffffffffffffffffffffff1673ffffffffffffffffffffffffffffffffffffffff1681526020018281526020019250505060405180910390a150565b60608060046040519080825280602002602001820160405280156105a45781602001602082028038833980820191505090505b509050600560003373ffffffffffffffffffffffffffffffffffffffff1673ffffffffffffffffffffffffffffffffffffffff168152602001908152602001600020548160008151811015156105f657fe5b9060200190602002018181525050600760003373ffffffffffffffffffffffffffffffffffffffff1673ffffffffffffffffffffffffffffffffffffffff1681526020019081526020016000205481600181518110151561065357fe5b9060200190602002018181525050600860003373ffffffffffffffffffffffffffffffffffffffff1673ffffffffffffffffffffffffffffffffffffffff168152602001908152602001600020548160028151811015156106b057fe5b9060200190602002018181525050600660003373ffffffffffffffffffffffffffffffffffffffff1673ffffffffffffffffffffffffffffffffffffffff1681526020019081526020016000205481600381518110151561070d57fe5b90602001906020020181815250508091505090565b60008060008060009054906101000a900473ffffffffffffffffffffffffffffffffffffffff1673ffffffffffffffffffffffffffffffffffffffff163373ffffffffffffffffffffffffffffffffffffffff1614151561078257600080fd5b600091505b600980549050821015610abd57600860006009848154811015156107a757fe5b9060005260206000200160009054906101000a900473ffffffffffffffffffffffffffffffffffffffff1673ffffffffffffffffffffffffffffffffffffffff1673ffffffffffffffffffffffffffffffffffffffff16815260200190815260200160002054905061082281846120d090919063ffffffff16565b92506108af816006600060098681548110151561083b57fe5b9060005260206000200160009054906101000a900473ffffffffffffffffffffffffffffffffffffffff1673ffffffffffffffffffffffffffffffffffffffff1673ffffffffffffffffffffffffffffffffffffffff168152602001908152602001600020546120ec90919063ffffffff16565b600660006009858154811015156108c257fe5b9060005260206000200160009054906101000a900473ffffffffffffffffffffffffffffffffffffffff1673ffffffffffffffffffffffffffffffffffffffff1673ffffffffffffffffffffffffffffffffffffffff168152602001908152602001600020819055506109b6816005600060098681548110151561094257fe5b9060005260206000200160009054906101000a900473ffffffffffffffffffffffffffffffffffffffff1673ffffffffffffffffffffffffffffffffffffffff1673ffffffffffffffffffffffffffffffffffffffff168152602001908152602001600020546120d090919063ffffffff16565b600560006009858154811015156109c957fe5b9060005260206000200160009054906101000a900473ffffffffffffffffffffffffffffffffffffffff1673ffffffffffffffffffffffffffffffffffffffff1673ffffffffffffffffffffffffffffffffffffffff16815260200190815260200160002081905550600060086000600985815481101515610a4757fe5b9060005260206000200160009054906101000a900473ffffffffffffffffffffffffffffffffffffffff1673ffffffffffffffffffffffffffffffffffffffff1673ffffffffffffffffffffffffffffffffffffffff168152602001908152602001600020819055508180600101925050610787565b610ad2836003546120ec90919063ffffffff16565b600381905550600260009054906101000a900473ffffffffffffffffffffffffffffffffffffffff1673ffffffffffffffffffffffffffffffffffffffff16632e1a7d4d846040518263ffffffff167c010000000000000000000000000000000000000000000000000000000002815260040180828152602001915050600060405180830381600087803b158015610b6957600080fd5b505af1158015610b7d573d6000803e3d6000fd5b505050507fc56736dcf0d4f5e82a639a9147b6843027755e445f6c6379e64fafaf677fc95f3384600003604051808373ffffffffffffffffffffffffffffffffffffffff1673ffffffffffffffffffffffffffffffffffffffff1681526020018281526020019250505060405180910390a1505050565b60008060149054906101000a900460ff16151515610c1157600080fd5b600082111515610c2057600080fd5b81600560003373ffffffffffffffffffffffffffffffffffffffff1673ffffffffffffffffffffffffffffffffffffffff1681526020019081526020016000205410151515610c6e57600080fd5b600560003373ffffffffffffffffffffffffffffffffffffffff1673ffffffffffffffffffffffffffffffffffffffff168152602001908152602001600020549050610d0282600560003373ffffffffffffffffffffffffffffffffffffffff1673ffffffffffffffffffffffffffffffffffffffff168152602001908152602001600020546120ec90919063ffffffff16565b600560003373ffffffffffffffffffffffffffffffffffffffff1673ffffffffffffffffffffffffffffffffffffffff16815260200190815260200160002081905550610d4e33612105565b3373ffffffffffffffffffffffffffffffffffffffff166108fc839081150290604051600060405180830381858888f19350505050158015610d94573d6000803e3d6000fd5b507f0a6a25cb4c48efc2ab56beb2d60e9ce42dd1c152152d0ac8761707c25fabcb943382600560003373ffffffffffffffffffffffffffffffffffffffff1673ffffffffffffffffffffffffffffffffffffffff1681526020019081526020016000205485604051808573ffffffffffffffffffffffffffffffffffffffff1673ffffffffffffffffffffffffffffffffffffffff16815260200184815260200183815260200182815260200194505050505060405180910390a15050565b60008060008060009054906101000a900473ffffffffffffffffffffffffffffffffffffffff1673ffffffffffffffffffffffffffffffffffffffff163373ffffffffffffffffffffffffffffffffffffffff16141515610eb357600080fd5b600091505b6009805490508210156110e75760076000600984815481101515610ed857fe5b9060005260206000200160009054906101000a900473ffffffffffffffffffffffffffffffffffffffff1673ffffffffffffffffffffffffffffffffffffffff1673ffffffffffffffffffffffffffffffffffffffff168152602001908152602001600020549050610f5381846120d090919063ffffffff16565b9250610fe08160066000600986815481101515610f6c57fe5b9060005260206000200160009054906101000a900473ffffffffffffffffffffffffffffffffffffffff1673ffffffffffffffffffffffffffffffffffffffff1673ffffffffffffffffffffffffffffffffffffffff168152602001908152602001600020546120d090919063ffffffff16565b60066000600985815481101515610ff357fe5b9060005260206000200160009054906101000a900473ffffffffffffffffffffffffffffffffffffffff1673ffffffffffffffffffffffffffffffffffffffff1673ffffffffffffffffffffffffffffffffffffffff1681526020019081526020016000208190555060006007600060098581548110151561107157fe5b9060005260206000200160009054906101000a900473ffffffffffffffffffffffffffffffffffffffff1673ffffffffffffffffffffffffffffffffffffffff1673ffffffffffffffffffffffffffffffffffffffff168152602001908152602001600020819055508180600101925050610eb8565b6110fc836003546120d090919063ffffffff16565b600381905550600260009054906101000a900473ffffffffffffffffffffffffffffffffffffffff1673ffffffffffffffffffffffffffffffffffffffff166108fc849081150290604051600060405180830381858888f1935050505015801561116a573d6000803e3d6000fd5b507fc56736dcf0d4f5e82a639a9147b6843027755e445f6c6379e64fafaf677fc95f3384604051808373ffffffffffffffffffffffffffffffffffffffff1673ffffffffffffffffffffffffffffffffffffffff1681526020018281526020019250505060405180910390a1505050565b6000809054906101000a900473ffffffffffffffffffffffffffffffffffffffff1673ffffffffffffffffffffffffffffffffffffffff163373ffffffffffffffffffffffffffffffffffffffff1614151561123657600080fd5b600060149054906101000a900460ff16151561125157600080fd5b60008060146101000a81548160ff0219169083151502179055507f7805862f689e2f13df9f062ff482ad3ad112aca9e0847911ed832e158c525b3360405160405180910390a1565b60008060009054906101000a900473ffffffffffffffffffffffffffffffffffffffff1673ffffffffffffffffffffffffffffffffffffffff163373ffffffffffffffffffffffffffffffffffffffff161415156112f657600080fd5b600073ffffffffffffffffffffffffffffffffffffffff168273ffffffffffffffffffffffffffffffffffffffff161415151561133257600080fd5b600160009054906101000a900473ffffffffffffffffffffffffffffffffffffffff16905081600160006101000a81548173ffffffffffffffffffffffffffffffffffffffff021916908373ffffffffffffffffffffffffffffffffffffffff160217905550600160009054906101000a900473ffffffffffffffffffffffffffffffffffffffff16600260006101000a81548173ffffffffffffffffffffffffffffffffffffffff021916908373ffffffffffffffffffffffffffffffffffffffff1602179055507f903f54ac3f929e4387eea592c574c6fda33a02fb0116ab836f1ca0200490274481600160009054906101000a900473ffffffffffffffffffffffffffffffffffffffff16604051808373ffffffffffffffffffffffffffffffffffffffff1673ffffffffffffffffffffffffffffffffffffffff1681526020018273ffffffffffffffffffffffffffffffffffffffff1673ffffffffffffffffffffffffffffffffffffffff1681526020019250505060405180910390a15050565b600060149054906101000a900460ff1681565b6000809054906101000a900473ffffffffffffffffffffffffffffffffffffffff1673ffffffffffffffffffffffffffffffffffffffff163373ffffffffffffffffffffffffffffffffffffffff1614151561152657600080fd5b6000809054906101000a900473ffffffffffffffffffffffffffffffffffffffff1673ffffffffffffffffffffffffffffffffffffffff167ff8df31144d9c2f0f6b59d69b8b98abd5459d07f2742c4df920b25aae33c6482060405160405180910390a260008060006101000a81548173ffffffffffffffffffffffffffffffffffffffff021916908373ffffffffffffffffffffffffffffffffffffffff160217905550565b60008060149054906101000a900460ff161515156115ea57600080fd5b6000600560003373ffffffffffffffffffffffffffffffffffffffff1673ffffffffffffffffffffffffffffffffffffffff1681526020019081526020016000205411151561163857600080fd5b611641336121a5565b600560003373ffffffffffffffffffffffffffffffffffffffff1673ffffffffffffffffffffffffffffffffffffffff1681526020019081526020016000205490506000600560003373ffffffffffffffffffffffffffffffffffffffff1673ffffffffffffffffffffffffffffffffffffffff1681526020019081526020016000208190555061171a81600760003373ffffffffffffffffffffffffffffffffffffffff1673ffffffffffffffffffffffffffffffffffffffff168152602001908152602001600020546120d090919063ffffffff16565b600760003373ffffffffffffffffffffffffffffffffffffffff1673ffffffffffffffffffffffffffffffffffffffff168152602001908152602001600020819055507fc56736dcf0d4f5e82a639a9147b6843027755e445f6c6379e64fafaf677fc95f33600760003373ffffffffffffffffffffffffffffffffffffffff1673ffffffffffffffffffffffffffffffffffffffff16815260200190815260200160002054604051808373ffffffffffffffffffffffffffffffffffffffff1673ffffffffffffffffffffffffffffffffffffffff1681526020018281526020019250505060405180910390a150565b6000809054906101000a900473ffffffffffffffffffffffffffffffffffffffff1673ffffffffffffffffffffffffffffffffffffffff163373ffffffffffffffffffffffffffffffffffffffff1614151561186557600080fd5b600060149054906101000a900460ff1615151561188157600080fd5b6001600060146101000a81548160ff0219169083151502179055507f6985a02210a168e66602d3235cb6db0e70f92b3ba4d376a33c0f3d9434bff62560405160405180910390a1565b6000809054906101000a900473ffffffffffffffffffffffffffffffffffffffff1681565b60008060008060008060009054906101000a900473ffffffffffffffffffffffffffffffffffffffff1673ffffffffffffffffffffffffffffffffffffffff163373ffffffffffffffffffffffffffffffffffffffff1614151561195257600080fd5b6119a0600354600260009054906101000a900473ffffffffffffffffffffffffffffffffffffffff1673ffffffffffffffffffffffffffffffffffffffff16316120ec90919063ffffffff16565b94507fe86fdbf0d9c1358793650fef313548e2a6371010f6b5d701f953cc2e570bca9c856040518082815260200191505060405180910390a16119ed6064866122d890919063ffffffff16565b9350611a0284866120ec90919063ffffffff16565b94506000600354118015611a165750600085115b15611efd57600092505b600980549050831015611c8e5760066000600985815481101515611a4057fe5b9060005260206000200160009054906101000a900473ffffffffffffffffffffffffffffffffffffffff1673ffffffffffffffffffffffffffffffffffffffff1673ffffffffffffffffffffffffffffffffffffffff168152602001908152602001600020549150611ae1611ad2600354611ac485896122ee90919063ffffffff16565b6122d890919063ffffffff16565b836120d090919063ffffffff16565b60066000600986815481101515611af457fe5b9060005260206000200160009054906101000a900473ffffffffffffffffffffffffffffffffffffffff1673ffffffffffffffffffffffffffffffffffffffff1673ffffffffffffffffffffffffffffffffffffffff168152602001908152602001600020819055507f49240d5f2fc496281d20056fa6150e45713e9084fa6ee03b6b5c3cb5d1691ca5600984815481101515611b8d57fe5b9060005260206000200160009054906101000a900473ffffffffffffffffffffffffffffffffffffffff168360066000600988815481101515611bcc57fe5b9060005260206000200160009054906101000a900473ffffffffffffffffffffffffffffffffffffffff1673ffffffffffffffffffffffffffffffffffffffff1673ffffffffffffffffffffffffffffffffffffffff16815260200190815260200160002054604051808473ffffffffffffffffffffffffffffffffffffffff1673ffffffffffffffffffffffffffffffffffffffff168152602001838152602001828152602001935050505060405180910390a18280600101935050611a20565b600660008060009054906101000a900473ffffffffffffffffffffffffffffffffffffffff1673ffffffffffffffffffffffffffffffffffffffff1673ffffffffffffffffffffffffffffffffffffffff168152602001908152602001600020549050611d6484600660008060009054906101000a900473ffffffffffffffffffffffffffffffffffffffff1673ffffffffffffffffffffffffffffffffffffffff1673ffffffffffffffffffffffffffffffffffffffff168152602001908152602001600020546120d090919063ffffffff16565b600660008060009054906101000a900473ffffffffffffffffffffffffffffffffffffffff1673ffffffffffffffffffffffffffffffffffffffff1673ffffffffffffffffffffffffffffffffffffffff168152602001908152602001600020819055507f49240d5f2fc496281d20056fa6150e45713e9084fa6ee03b6b5c3cb5d1691ca56000809054906101000a900473ffffffffffffffffffffffffffffffffffffffff1682600660008060009054906101000a900473ffffffffffffffffffffffffffffffffffffffff1673ffffffffffffffffffffffffffffffffffffffff1673ffffffffffffffffffffffffffffffffffffffff16815260200190815260200160002054604051808473ffffffffffffffffffffffffffffffffffffffff1673ffffffffffffffffffffffffffffffffffffffff168152602001838152602001828152602001935050505060405180910390a1600260009054906101000a900473ffffffffffffffffffffffffffffffffffffffff1673ffffffffffffffffffffffffffffffffffffffff16316003819055505b5050505050565b600060149054906101000a900460ff16151515611f2057600080fd5b611f7234600560003373ffffffffffffffffffffffffffffffffffffffff1673ffffffffffffffffffffffffffffffffffffffff168152602001908152602001600020546120d090919063ffffffff16565b600560003373ffffffffffffffffffffffffffffffffffffffff1673ffffffffffffffffffffffffffffffffffffffff168152602001908152602001600020819055507f289612937eedf6241fafcdf01e3dd2fca195f2eceb2fe82a9baeeee6408be5513334600560003373ffffffffffffffffffffffffffffffffffffffff1673ffffffffffffffffffffffffffffffffffffffff16815260200190815260200160002054604051808473ffffffffffffffffffffffffffffffffffffffff1673ffffffffffffffffffffffffffffffffffffffff168152602001838152602001828152602001935050505060405180910390a1565b6000809054906101000a900473ffffffffffffffffffffffffffffffffffffffff1673ffffffffffffffffffffffffffffffffffffffff163373ffffffffffffffffffffffffffffffffffffffff161415156120c457600080fd5b6120cd81612326565b50565b600081830190508281101515156120e357fe5b80905092915050565b60008282111515156120fa57fe5b818303905092915050565b6000600560008373ffffffffffffffffffffffffffffffffffffffff1673ffffffffffffffffffffffffffffffffffffffff1681526020019081526020016000205414801561219357506000600660008373ffffffffffffffffffffffffffffffffffffffff1673ffffffffffffffffffffffffffffffffffffffff16815260200190815260200160002054145b156121a2576121a181612420565b5b50565b6000809054906101000a900473ffffffffffffffffffffffffffffffffffffffff1673ffffffffffffffffffffffffffffffffffffffff168173ffffffffffffffffffffffffffffffffffffffff1614156121ff576122d5565b612208816125fd565b15612212576122d5565b60098190806001815401808255809150509060018203906000526020600020016000909192909190916101000a81548173ffffffffffffffffffffffffffffffffffffffff021916908373ffffffffffffffffffffffffffffffffffffffff1602179055505061229160016009805490506120ec90919063ffffffff16565b600a60008373ffffffffffffffffffffffffffffffffffffffff1673ffffffffffffffffffffffffffffffffffffffff168152602001908152602001600020819055505b50565b600081838115156122e557fe5b04905092915050565b6000808314156123015760009050612320565b818302905081838281151561231257fe5b0414151561231c57fe5b8090505b92915050565b600073ffffffffffffffffffffffffffffffffffffffff168173ffffffffffffffffffffffffffffffffffffffff161415151561236257600080fd5b8073ffffffffffffffffffffffffffffffffffffffff166000809054906101000a900473ffffffffffffffffffffffffffffffffffffffff1673ffffffffffffffffffffffffffffffffffffffff167f8be0079c531659141344cd1fd0a4f28419497f9722a3daafe3b4186f6b6457e060405160405180910390a3806000806101000a81548173ffffffffffffffffffffffffffffffffffffffff021916908373ffffffffffffffffffffffffffffffffffffffff16021790555050565b6000806000809054906101000a900473ffffffffffffffffffffffffffffffffffffffff1673ffffffffffffffffffffffffffffffffffffffff168373ffffffffffffffffffffffffffffffffffffffff16141561247d576125f8565b600a60008473ffffffffffffffffffffffffffffffffffffffff1673ffffffffffffffffffffffffffffffffffffffff1681526020019081526020016000205491506124d860016009805490506120ec90919063ffffffff16565b8210156125d05760096124fa60016009805490506120ec90919063ffffffff16565b81548110151561250657fe5b9060005260206000200160009054906101000a900473ffffffffffffffffffffffffffffffffffffffff1690508060098381548110151561254357fe5b9060005260206000200160006101000a81548173ffffffffffffffffffffffffffffffffffffffff021916908373ffffffffffffffffffffffffffffffffffffffff16021790555081600a60008373ffffffffffffffffffffffffffffffffffffffff1673ffffffffffffffffffffffffffffffffffffffff168152602001908152602001600020819055505b6125e960016009805490506120ec90919063ffffffff16565b6009816125f69190612659565b505b505050565b600080600a60008473ffffffffffffffffffffffffffffffffffffffff1673ffffffffffffffffffffffffffffffffffffffff16815260200190815260200160002054141561264f5760009050612654565b600190505b919050565b8154818355818111156126805781836000526020600020918201910161267f9190612685565b5b505050565b6126a791905b808211156126a357600081600090555060010161268b565b5090565b905600a165627a7a7230582000d2de866c9d3a2f8f6176a70def608652a3cf6bc32722de53f8046eea28ab0a0029",
  "source": "pragma solidity 0.4.24;\n\nimport 'zeppelin-solidity/contracts/math/SafeMath.sol';\nimport 'zeppelin-solidity/contracts/lifecycle/Pausable.sol';\nimport './StakeContract.sol';\n\n/* @title Staking Pool Contract\n * Open Zeppelin Pausable is Ownable.  contains address owner */\ncontract StakePool is Pausable {\n  using SafeMath for uint;\n\n  /** @dev address of staking contract\n    * this variable is set at construction, and can be changed only by owner.*/\n  address private stakeContract;\n  /** @dev staking contract object to interact with staking mechanism.\n    * this is a mock contract.  */\n  StakeContract private sc;\n\n  /** @dev track total staked amount */\n  uint private totalStaked;\n  /** @dev track total deposited to pool */\n  uint private totalDeposited;\n\n  /** @dev track balances of ether deposited to pool */\n  mapping(address => uint) private depositedBalances;\n  /** @dev track balances of ether staked */\n  mapping(address => uint) private stakedBalances;\n  /** @dev track user request to enter next staking period */\n  mapping(address => uint) private requestStake;\n  /** @dev track user request to exit current staking period */\n  mapping(address => uint) private requestUnStake;\n\n  /** @dev track users\n    * users must be tracked in this array because mapping is not iterable */\n  address[] private users;\n  /** @dev track index by address added to users */\n  mapping(address => uint) private userIndex;\n\n  /** @dev notify when funds received from staking contract\n    * @param sender       msg.sender for the transaction\n    * @param amount       msg.value for the transaction\n   */\n  event NotifyFallback(address sender, uint amount);\n\n  /** @dev notify that StakeContract address has been changed \n    * @param oldSC old address of the staking contract\n    * @param newSC new address of the staking contract\n   */\n  event NotifyNewSC(address oldSC, address newSC);\n\n  /** @dev trigger notification of deposits\n    * @param sender  msg.sender for the transaction\n    * @param amount  msg.value for the transaction\n    * @param balance the users balance including this deposit\n   */\n  event NotifyDeposit(address sender, uint amount, uint balance);\n\n  /** @dev trigger notification of staked amount\n    * @param sender       msg.sender for the transaction\n    * @param amount       msg.value for the transaction\n    */\n  event NotifyStaked(address sender, uint amount);\n\n  /** @dev trigger notification of change in users staked balances\n    * @param user            address of user\n    * @param previousBalance users previous staked balance\n    * @param newStakeBalence users new staked balance\n    */\n  event NotifyUpdate(address user, uint previousBalance, uint newStakeBalence);\n\n  /** @dev trigger notification of withdrawal\n    * @param sender   address of msg.sender\n    * @param startBal users starting balance\n    * @param finalBal users final balance after withdrawal\n    * @param request  users requested withdraw amount\n    */\n  event NotifyWithdrawal(\n    address sender,\n    uint startBal,\n    uint finalBal,\n    uint request);\n\n  /** @dev trigger notification of earnings to be split\n    * @param earnings uint staking earnings for pool\n    */\n   event NotifyEarnings(uint earnings);\n\n\n  /** @dev contract constructor\n    * @param _stakeContract the address of the staking contract/mechanism\n    */\n  constructor(address _stakeContract) public {\n    require(_stakeContract != address(0));\n    stakeContract = _stakeContract;\n    sc = StakeContract(stakeContract);\n    // set owner to users[0] because unknown user will return 0 from userIndex\n    // this also allows owners to withdraw their own earnings using same\n    // functions as regular users\n    users.push(owner);\n  }\n\n  /** @dev payable fallback\n    * it is assumed that only funds received will be from stakeContract */\n  function () external payable {\n    emit NotifyFallback(msg.sender, msg.value);\n  }\n\n  /************************ USER MANAGEMENT **********************************/\n\n  /** @dev test if user is in current user list\n    * @param _user address of user to test if in list\n    * @return true if user is on record, otherwise false\n    */\n  function isExistingUser(address _user) internal view returns (bool) {\n    if ( userIndex[_user] == 0) {\n      return false;\n    }\n    return true;\n  }\n\n  /** @dev remove a user from users array\n    * @param _user address of user to remove from the list\n    */\n  function removeUser(address _user) internal {\n    if (_user == owner ) return;\n    uint index = userIndex[_user];\n    // user is not last user\n    if (index < users.length.sub(1)) {\n      address lastUser = users[users.length.sub(1)];\n      users[index] = lastUser;\n      userIndex[lastUser] = index;\n    }\n    // this line removes last user\n    users.length = users.length.sub(1);\n  }\n\n  /** @dev add a user to users array\n    * @param _user address of user to add to the list\n    */\n  function addUser(address _user) internal {\n    if (_user == owner ) return;\n    if (isExistingUser(_user)) return;\n    users.push(_user);\n    // new user is currently last in users array\n    userIndex[_user] = users.length.sub(1);\n  }\n\n  /************************ USER MANAGEMENT **********************************/\n\n  /** @dev set staking contract address\n    * @param _stakeContract new address to change staking contract / mechanism\n    */\n  function setStakeContract(address _stakeContract) external onlyOwner {\n    require(_stakeContract != address(0));\n    address oldSC = stakeContract;\n    stakeContract = _stakeContract;\n    sc = StakeContract(stakeContract);\n    emit NotifyNewSC(oldSC, stakeContract);\n  }\n\n  /** @dev stake funds to stakeContract\n    */\n  function stake() external onlyOwner {\n    // * update mappings\n    // * send total balance to stakeContract\n    uint toStake;\n    for (uint i = 0; i < users.length; i++) {\n      uint amount = requestStake[users[i]];\n      toStake = toStake.add(amount);\n      stakedBalances[users[i]] = stakedBalances[users[i]].add(amount);\n      requestStake[users[i]] = 0;\n    }\n\n    // track total staked\n    totalStaked = totalStaked.add(toStake);\n\n    address(sc).transfer(toStake);\n\n    emit NotifyStaked(msg.sender, toStake);\n  }\n\n  /** @dev unstake funds from stakeContract\n    */\n  function unstake() external onlyOwner {\n    uint unStake;\n    for (uint i = 0; i < users.length; i++) {\n      uint amount = requestUnStake[users[i]];\n      unStake = unStake.add(amount);\n      stakedBalances[users[i]] = stakedBalances[users[i]].sub(amount);\n      depositedBalances[users[i]] = depositedBalances[users[i]].add(amount);\n      requestUnStake[users[i]] = 0;\n    }\n\n    // track total staked\n    totalStaked = totalStaked.sub(unStake);\n\n    sc.withdraw(unStake);\n\n    emit NotifyStaked(msg.sender, -unStake);\n  }\n\n  /** @dev calculated new stakedBalances\n    * @return true if calc is successful, otherwise false\n    */\n  function calcNewBalances() external onlyOwner {\n    uint earnings = address(sc).balance.sub(totalStaked);\n    emit NotifyEarnings(earnings);\n    uint ownerProfit = earnings.div(100);\n    earnings = earnings.sub(ownerProfit);\n\n    if (totalStaked > 0 && earnings > 0) {\n      for (uint i = 0; i < users.length; i++) {\n        uint currentBalance = stakedBalances[users[i]];\n        stakedBalances[users[i]] =\n          currentBalance.add(\n            earnings.mul(currentBalance).div(totalStaked)\n          );\n        emit NotifyUpdate(users[i], currentBalance, stakedBalances[users[i]]);\n      }\n      uint ownerBalancePrior = stakedBalances[owner];\n      stakedBalances[owner] = stakedBalances[owner].add(ownerProfit);\n      emit NotifyUpdate(owner, ownerBalancePrior, stakedBalances[owner]);\n      totalStaked = address(sc).balance;\n    }\n  }\n\n  /** @dev deposit funds to the contract\n    */\n  function deposit() external payable whenNotPaused {\n    depositedBalances[msg.sender] = depositedBalances[msg.sender].add(msg.value);\n    emit NotifyDeposit(msg.sender, msg.value, depositedBalances[msg.sender]);\n  }\n\n  /** @dev withdrawal funds out of pool\n    * @param wdValue amount to withdraw\n    */\n  function withdraw(uint wdValue) external whenNotPaused {\n    require(wdValue > 0);\n    require(depositedBalances[msg.sender] >= wdValue);\n    uint startBalance = depositedBalances[msg.sender];\n    depositedBalances[msg.sender] = depositedBalances[msg.sender].sub(wdValue);\n    checkIfUserIsLeaving(msg.sender);\n\n    msg.sender.transfer(wdValue);\n\n    emit NotifyWithdrawal(\n      msg.sender,\n      startBalance,\n      depositedBalances[msg.sender],\n      wdValue\n    );\n  }\n\n  /** @dev if user has no deposit and no staked funds they are leaving the \n    * pool.  Remove them from user list.\n    * @param _user address of user to check\n    */\n  function checkIfUserIsLeaving(address _user) internal {\n    if (depositedBalances[_user] == 0 && stakedBalances[_user] == 0) {\n      removeUser(_user);\n    }\n  }\n\n  /** @dev user can request to enter next staking period */\n  function requestNextStakingPeriod() external whenNotPaused {\n    require(depositedBalances[msg.sender] > 0);\n\n    addUser(msg.sender);\n    uint amount = depositedBalances[msg.sender];\n    depositedBalances[msg.sender] = 0;\n    requestStake[msg.sender] = requestStake[msg.sender].add(amount);\n    emit NotifyStaked(msg.sender, requestStake[msg.sender]);\n  }\n\n  /** @dev user can request to exit at end of current staking period\n    * @param amount requested amount to withdraw from staking contract\n   */\n  function requestExitAtEndOfCurrentStakingPeriod(uint amount) external whenNotPaused {\n    require(stakedBalances[msg.sender] >= amount);\n    requestUnStake[msg.sender] = requestUnStake[msg.sender].add(amount);\n    emit NotifyStaked(msg.sender, requestUnStake[msg.sender]);\n  }\n\n  /** @dev retreive current state of users funds\n    * @return array of values describing the current state of user\n   */\n  function getState() external view returns (uint[]) {\n    uint[] memory state = new uint[](4);\n    state[0] = depositedBalances[msg.sender];\n    state[1] = requestStake[msg.sender];\n    state[2] = requestUnStake[msg.sender];\n    state[3] = stakedBalances[msg.sender];\n    return state;\n  }\n}\n",
  "sourcePath": "/mnt/projects/ethereum/learn/consensys_academy/final_project/contracts/StakePool.sol",
  "compiler": {
    "name": "solc",
    "version": "0.4.24+commit.e67f0147.Emscripten.clang"
  },
  "schemaVersion": "2.0.1",
  "updatedAt": "2018-08-27T20:48:57.048Z"
}