{
  "contractName": "StakePool",
  "abi": [
    {
      "inputs": [],
      "payable": false,
      "stateMutability": "nonpayable",
      "type": "constructor"
    },
    {
      "anonymous": false,
      "inputs": [
        {
          "indexed": false,
          "name": "sender",
          "type": "address"
        },
        {
          "indexed": false,
          "name": "amount",
          "type": "uint256"
        },
        {
          "indexed": false,
          "name": "balance",
          "type": "uint256"
        }
      ],
      "name": "NotifyDeposit",
      "type": "event"
    },
    {
      "anonymous": false,
      "inputs": [
        {
          "indexed": false,
          "name": "sender",
          "type": "address"
        },
        {
          "indexed": false,
          "name": "startBal",
          "type": "uint256"
        },
        {
          "indexed": false,
          "name": "finalBal",
          "type": "uint256"
        },
        {
          "indexed": false,
          "name": "request",
          "type": "uint256"
        }
      ],
      "name": "NotifyWithdrawal",
      "type": "event"
    },
    {
      "constant": false,
      "inputs": [],
      "name": "deposit",
      "outputs": [],
      "payable": true,
      "stateMutability": "payable",
      "type": "function"
    },
    {
      "constant": false,
      "inputs": [
        {
          "name": "wdValue",
          "type": "uint256"
        }
      ],
      "name": "withdrawal",
      "outputs": [],
      "payable": false,
      "stateMutability": "nonpayable",
      "type": "function"
    },
    {
      "constant": true,
      "inputs": [],
      "name": "getBalance",
      "outputs": [
        {
          "name": "",
          "type": "uint256"
        }
      ],
      "payable": false,
      "stateMutability": "view",
      "type": "function"
    }
  ],
  "bytecode": "0x608060405234801561001057600080fd5b50610475806100206000396000f300608060405260043610610057576000357c0100000000000000000000000000000000000000000000000000000000900463ffffffff16806312065fe01461005c578063835fc6ca14610087578063d0e30db0146100b4575b600080fd5b34801561006857600080fd5b506100716100be565b6040518082815260200191505060405180910390f35b34801561009357600080fd5b506100b260048036038101908080359060200190929190505050610104565b005b6100bc610331565b005b60008060003373ffffffffffffffffffffffffffffffffffffffff1673ffffffffffffffffffffffffffffffffffffffff16815260200190815260200160002054905090565b60008060008311151561011657600080fd5b826000803373ffffffffffffffffffffffffffffffffffffffff1673ffffffffffffffffffffffffffffffffffffffff1681526020019081526020016000205410151561032c576000803373ffffffffffffffffffffffffffffffffffffffff1673ffffffffffffffffffffffffffffffffffffffff1681526020019081526020016000205491506101e66000803373ffffffffffffffffffffffffffffffffffffffff1673ffffffffffffffffffffffffffffffffffffffff1681526020019081526020016000205484610430565b9050806000803373ffffffffffffffffffffffffffffffffffffffff1673ffffffffffffffffffffffffffffffffffffffff168152602001908152602001600020819055503373ffffffffffffffffffffffffffffffffffffffff166108fc849081150290604051600060405180830381858888f19350505050158015610271573d6000803e3d6000fd5b507f0a6a25cb4c48efc2ab56beb2d60e9ce42dd1c152152d0ac8761707c25fabcb9433836000803373ffffffffffffffffffffffffffffffffffffffff1673ffffffffffffffffffffffffffffffffffffffff1681526020019081526020016000205486604051808573ffffffffffffffffffffffffffffffffffffffff1673ffffffffffffffffffffffffffffffffffffffff16815260200184815260200183815260200182815260200194505050505060405180910390a15b505050565b346000803373ffffffffffffffffffffffffffffffffffffffff1673ffffffffffffffffffffffffffffffffffffffff168152602001908152602001600020600082825401925050819055507f289612937eedf6241fafcdf01e3dd2fca195f2eceb2fe82a9baeeee6408be55133346000803373ffffffffffffffffffffffffffffffffffffffff1673ffffffffffffffffffffffffffffffffffffffff16815260200190815260200160002054604051808473ffffffffffffffffffffffffffffffffffffffff1673ffffffffffffffffffffffffffffffffffffffff168152602001838152602001828152602001935050505060405180910390a1565b600082821115151561043e57fe5b8183039050929150505600a165627a7a72305820aa4cefc8854649ddcc5361f24be4334c44706c2ffbbabbd680357d11a812102f0029",
  "source": "pragma solidity ^0.4.24;\n\nimport 'zeppelin-solidity/contracts/math/SafeMath.sol';\n\n/* @title Staking Pool Contract */\ncontract StakePool {\n\n  // track balances of ether deposited to contract\n  mapping(address => uint) poolBalances;\n\n  /** @dev trigger notification of deposits\n    */\n  event NotifyDeposit(\n    address sender,\n    uint amount,\n    uint balance);\n\n  /** @dev trigger notification of withdrawal\n    */\n  event NotifyWithdrawal(\n    address sender,\n    uint startBal,\n    uint finalBal,\n    uint request);\n\n  /** @dev creates contract\n    */\n  constructor() public { }\n\n  /** @dev deposit funds to the contract\n    */\n   function deposit() public payable {\n     poolBalances[msg.sender] += msg.value;\n     emit NotifyDeposit(msg.sender, msg.value, poolBalances[msg.sender]);\n   }\n\n   /** @dev withdrawal funds out of pool\n     * TODO: this must be a request for withdrawal as un-staking takes time\n     * not payable, not receiving funds\n     *\n     */\n    function withdrawal(uint wdValue) public {\n      require(wdValue > 0);\n      if (poolBalances[msg.sender] >= wdValue) {\n       // open zeppelin sub function to ensure no overflow\n       uint startBalance = poolBalances[msg.sender];\n       uint newBalance = SafeMath.sub(poolBalances[msg.sender], wdValue);\n       poolBalances[msg.sender] = newBalance;\n       msg.sender.transfer(wdValue);\n\n      emit NotifyWithdrawal(\n        msg.sender,\n        startBalance,\n        poolBalances[msg.sender],\n        wdValue\n      );\n     }\n    }\n\n    /** @dev retreive balance from contract\n      * @return uint current value of deposit\n      */\n    function getBalance() public view returns (uint) {\n      return poolBalances[msg.sender];\n    }\n}\n\n\n  /* example comments for functions */\n    /** @dev Calculates a rectangle's surface and perimeter.\n      * @param w Width of the rectangle.\n      * @param h Height of the rectangle.\n      * @return s The calculated surface.\n      * @return p The calculated perimeter.\n      */\n",
  "sourcePath": "/mnt/projects/ethereum/learn/consensys_academy/final_project/contracts/StakePool.sol",
  "compiler": {
    "name": "solc",
    "version": "0.4.24+commit.e67f0147.Emscripten.clang"
  },
  "schemaVersion": "2.0.1",
  "updatedAt": "2018-08-07T23:25:32.266Z"
}